{
  "_format": "hh-sol-artifact-1",
  "contractName": "Voting_Dao",
  "sourceName": "contracts/Voting_Dao.sol",
  "abi": [
    {
      "inputs": [],
      "stateMutability": "nonpayable",
      "type": "constructor"
    },
    {
      "anonymous": false,
      "inputs": [
        {
          "indexed": true,
          "internalType": "uint256",
          "name": "electionId",
          "type": "uint256"
        },
        {
          "indexed": true,
          "internalType": "uint256",
          "name": "candidateId",
          "type": "uint256"
        },
        {
          "indexed": false,
          "internalType": "string",
          "name": "name",
          "type": "string"
        }
      ],
      "name": "CandidateAdded",
      "type": "event"
    },
    {
      "anonymous": false,
      "inputs": [
        {
          "indexed": true,
          "internalType": "uint256",
          "name": "electionId",
          "type": "uint256"
        },
        {
          "indexed": false,
          "internalType": "string",
          "name": "title",
          "type": "string"
        },
        {
          "indexed": false,
          "internalType": "uint256",
          "name": "votingEnd",
          "type": "uint256"
        }
      ],
      "name": "ElectionCreated",
      "type": "event"
    },
    {
      "anonymous": false,
      "inputs": [
        {
          "indexed": true,
          "internalType": "uint256",
          "name": "electionId",
          "type": "uint256"
        },
        {
          "indexed": false,
          "internalType": "string",
          "name": "winnerName",
          "type": "string"
        },
        {
          "indexed": false,
          "internalType": "uint256",
          "name": "winningVoteCount",
          "type": "uint256"
        }
      ],
      "name": "ElectionEnded",
      "type": "event"
    },
    {
      "anonymous": false,
      "inputs": [
        {
          "indexed": true,
          "internalType": "uint256",
          "name": "electionId",
          "type": "uint256"
        },
        {
          "indexed": true,
          "internalType": "address",
          "name": "voter",
          "type": "address"
        },
        {
          "indexed": false,
          "internalType": "uint256",
          "name": "candidateId",
          "type": "uint256"
        }
      ],
      "name": "VoteCast",
      "type": "event"
    },
    {
      "anonymous": false,
      "inputs": [
        {
          "indexed": true,
          "internalType": "uint256",
          "name": "electionId",
          "type": "uint256"
        },
        {
          "indexed": false,
          "internalType": "string",
          "name": "winnerName",
          "type": "string"
        },
        {
          "indexed": false,
          "internalType": "uint256",
          "name": "winningVoteCount",
          "type": "uint256"
        }
      ],
      "name": "WinnerUpdated",
      "type": "event"
    },
    {
      "inputs": [
        {
          "internalType": "uint256",
          "name": "electionId",
          "type": "uint256"
        },
        {
          "internalType": "string",
          "name": "_candidateName",
          "type": "string"
        }
      ],
      "name": "addCandidate",
      "outputs": [],
      "stateMutability": "nonpayable",
      "type": "function"
    },
    {
      "inputs": [
        {
          "internalType": "string",
          "name": "_title",
          "type": "string"
        },
        {
          "internalType": "uint256",
          "name": "_votingDuration",
          "type": "uint256"
        }
      ],
      "name": "createElection",
      "outputs": [],
      "stateMutability": "nonpayable",
      "type": "function"
    },
    {
      "inputs": [],
      "name": "electionCount",
      "outputs": [
        {
          "internalType": "uint256",
          "name": "",
          "type": "uint256"
        }
      ],
      "stateMutability": "view",
      "type": "function"
    },
    {
      "inputs": [
        {
          "internalType": "uint256",
          "name": "",
          "type": "uint256"
        }
      ],
      "name": "elections",
      "outputs": [
        {
          "internalType": "string",
          "name": "title",
          "type": "string"
        },
        {
          "internalType": "uint256",
          "name": "votingEnd",
          "type": "uint256"
        },
        {
          "internalType": "bool",
          "name": "isActive",
          "type": "bool"
        },
        {
          "internalType": "uint256",
          "name": "candidateCount",
          "type": "uint256"
        },
        {
          "internalType": "string",
          "name": "winnerName",
          "type": "string"
        },
        {
          "internalType": "uint256",
          "name": "winningVoteCount",
          "type": "uint256"
        }
      ],
      "stateMutability": "view",
      "type": "function"
    },
    {
      "inputs": [
        {
          "internalType": "uint256",
          "name": "electionId",
          "type": "uint256"
        }
      ],
      "name": "endElection",
      "outputs": [],
      "stateMutability": "nonpayable",
      "type": "function"
    },
    {
      "inputs": [
        {
          "internalType": "uint256",
          "name": "electionId",
          "type": "uint256"
        },
        {
          "internalType": "uint256",
          "name": "candidateId",
          "type": "uint256"
        }
      ],
      "name": "getCandidate",
      "outputs": [
        {
          "internalType": "string",
          "name": "name",
          "type": "string"
        },
        {
          "internalType": "uint256",
          "name": "voteCount",
          "type": "uint256"
        }
      ],
      "stateMutability": "view",
      "type": "function"
    },
    {
      "inputs": [
        {
          "internalType": "uint256",
          "name": "electionId",
          "type": "uint256"
        }
      ],
      "name": "getElection",
      "outputs": [
        {
          "internalType": "string",
          "name": "title",
          "type": "string"
        },
        {
          "internalType": "uint256",
          "name": "votingEnd",
          "type": "uint256"
        },
        {
          "internalType": "bool",
          "name": "isActive",
          "type": "bool"
        },
        {
          "internalType": "uint256",
          "name": "candidateCount",
          "type": "uint256"
        }
      ],
      "stateMutability": "view",
      "type": "function"
    },
    {
      "inputs": [
        {
          "internalType": "uint256",
          "name": "electionId",
          "type": "uint256"
        }
      ],
      "name": "getWinner",
      "outputs": [
        {
          "internalType": "string",
          "name": "winnerName",
          "type": "string"
        },
        {
          "internalType": "uint256",
          "name": "winningVoteCount",
          "type": "uint256"
        }
      ],
      "stateMutability": "view",
      "type": "function"
    },
    {
      "inputs": [
        {
          "internalType": "uint256",
          "name": "electionId",
          "type": "uint256"
        },
        {
          "internalType": "address",
          "name": "voter",
          "type": "address"
        }
      ],
      "name": "hasVoted",
      "outputs": [
        {
          "internalType": "bool",
          "name": "",
          "type": "bool"
        }
      ],
      "stateMutability": "view",
      "type": "function"
    },
    {
      "inputs": [],
      "name": "owner",
      "outputs": [
        {
          "internalType": "address",
          "name": "",
          "type": "address"
        }
      ],
      "stateMutability": "view",
      "type": "function"
    },
    {
      "inputs": [
        {
          "internalType": "uint256",
          "name": "electionId",
          "type": "uint256"
        },
        {
          "internalType": "uint256",
          "name": "candidateId",
          "type": "uint256"
        }
      ],
      "name": "updateWinner",
      "outputs": [],
      "stateMutability": "nonpayable",
      "type": "function"
    },
    {
      "inputs": [
        {
          "internalType": "uint256",
          "name": "electionId",
          "type": "uint256"
        },
        {
          "internalType": "uint256",
          "name": "candidateId",
          "type": "uint256"
        }
      ],
      "name": "vote",
      "outputs": [],
      "stateMutability": "nonpayable",
      "type": "function"
    }
  ],
  "bytecode": "0x608060405234801561001057600080fd5b50336000806101000a81548173ffffffffffffffffffffffffffffffffffffffff021916908373ffffffffffffffffffffffffffffffffffffffff1602179055506000600181905550612259806100686000396000f3fe608060405234801561001057600080fd5b50600436106100b45760003560e01c80636fbb5a86116100715780636fbb5a86146101b85780638da5cb5b146101d4578063997d2830146101f25780639c98bcbb146102105780639d7107771461022c578063b384abef1461025f576100b4565b80631750a3d0146100b95780634129b2c9146100d5578063432cf2ce1461010657806343859632146101225780634bd46448146101525780635e6fef0114610183575b600080fd5b6100d360048036038101906100ce91906114d4565b61027b565b005b6100ef60048036038101906100ea9190611530565b610481565b6040516100fd9291906115eb565b60405180910390f35b610120600480360381019061011b919061161b565b6105d3565b005b61013c600480360381019061013791906116d5565b610725565b6040516101499190611730565b60405180910390f35b61016c6004803603810190610167919061174b565b6107df565b60405161017a9291906115eb565b60405180910390f35b61019d60048036038101906101989190611530565b610941565b6040516101af9695949392919061178b565b60405180910390f35b6101d260048036038101906101cd919061174b565b610a9a565b005b6101dc610cb0565b6040516101e99190611809565b60405180910390f35b6101fa610cd4565b6040516102079190611824565b60405180910390f35b61022a60048036038101906102259190611530565b610cda565b005b61024660048036038101906102419190611530565b610f95565b604051610256949392919061183f565b60405180910390f35b6102796004803603810190610274919061174b565b6110b5565b005b60008054906101000a900473ffffffffffffffffffffffffffffffffffffffff1673ffffffffffffffffffffffffffffffffffffffff163373ffffffffffffffffffffffffffffffffffffffff1614610309576040517f08c379a0000000000000000000000000000000000000000000000000000000008152600401610300906118fd565b60405180910390fd5b81600154811061034e576040517f08c379a000000000000000000000000000000000000000000000000000000000815260040161034590611969565b60405180910390fd5b6000600260008581526020019081526020016000209050600081600301549050600082600601600083815260200190815260200160002060010154146103c9576040517f08c379a00000000000000000000000000000000000000000000000000000000081526004016103c0906119d5565b60405180910390fd5b60405180606001604052808581526020016000815260200182815250826006016000838152602001908152602001600020600082015181600001908161040f9190611c01565b50602082015181600101556040820151816002015590505081600301600081548092919061043c90611d02565b919050555080857fed8911b3df733b7d5f75724158e54478ea12e30f49c9d31b5261879f5b76586f866040516104729190611d4a565b60405180910390a35050505050565b606060008260015481106104ca576040517f08c379a00000000000000000000000000000000000000000000000000000000081526004016104c190611969565b60405180910390fd5b60006002600086815260200190815260200160002090508060020160009054906101000a900460ff1615610533576040517f08c379a000000000000000000000000000000000000000000000000000000000815260040161052a90611db8565b60405180910390fd5b80600401816005015481805461054890611a24565b80601f016020809104026020016040519081016040528092919081815260200182805461057490611a24565b80156105c15780601f10610596576101008083540402835291602001916105c1565b820191906000526020600020905b8154815290600101906020018083116105a457829003601f168201915b50505050509150935093505050915091565b60008054906101000a900473ffffffffffffffffffffffffffffffffffffffff1673ffffffffffffffffffffffffffffffffffffffff163373ffffffffffffffffffffffffffffffffffffffff1614610661576040517f08c379a0000000000000000000000000000000000000000000000000000000008152600401610658906118fd565b60405180910390fd5b600060026000600154815260200190815260200160002090508281600001908161068b9190611c01565b5081426106989190611dd8565b816001018190555060018160020160006101000a81548160ff021916908315150217905550600160008154809291906106d090611d02565b9190505550600180546106e39190611e0c565b7f43131521170c5b80ffe9526cfec987f5a24eb1f6c4bda47c41a5e4b8388afe5c8483600101546040516107189291906115eb565b60405180910390a2505050565b600082600154811061076c576040517f08c379a000000000000000000000000000000000000000000000000000000000815260040161076390611969565b60405180910390fd5b60006002600086815260200190815260200160002090508060070160008573ffffffffffffffffffffffffffffffffffffffff1673ffffffffffffffffffffffffffffffffffffffff16815260200190815260200160002060000160009054906101000a900460ff169250505092915050565b60606000836001548110610828576040517f08c379a000000000000000000000000000000000000000000000000000000000815260040161081f90611969565b60405180910390fd5b600060026000878152602001908152602001600020905080600301548510610885576040517f08c379a000000000000000000000000000000000000000000000000000000000815260040161087c90611e8c565b60405180910390fd5b600081600601600087815260200190815260200160002090508060000181600101548180546108b390611a24565b80601f01602080910402602001604051908101604052809291908181526020018280546108df90611a24565b801561092c5780601f106109015761010080835404028352916020019161092c565b820191906000526020600020905b81548152906001019060200180831161090f57829003601f168201915b50505050509150945094505050509250929050565b600260205280600052604060002060009150905080600001805461096490611a24565b80601f016020809104026020016040519081016040528092919081815260200182805461099090611a24565b80156109dd5780601f106109b2576101008083540402835291602001916109dd565b820191906000526020600020905b8154815290600101906020018083116109c057829003601f168201915b5050505050908060010154908060020160009054906101000a900460ff1690806003015490806004018054610a1190611a24565b80601f0160208091040260200160405190810160405280929190818152602001828054610a3d90611a24565b8015610a8a5780601f10610a5f57610100808354040283529160200191610a8a565b820191906000526020600020905b815481529060010190602001808311610a6d57829003601f168201915b5050505050908060050154905086565b60008054906101000a900473ffffffffffffffffffffffffffffffffffffffff1673ffffffffffffffffffffffffffffffffffffffff163373ffffffffffffffffffffffffffffffffffffffff1614610b28576040517f08c379a0000000000000000000000000000000000000000000000000000000008152600401610b1f906118fd565b60405180910390fd5b816001548110610b6d576040517f08c379a0000000000000000000000000000000000000000000000000000000008152600401610b6490611969565b60405180910390fd5b60006002600085815260200190815260200160002090508060020160009054906101000a900460ff1615610bd6576040517f08c379a0000000000000000000000000000000000000000000000000000000008152600401610bcd90611db8565b60405180910390fd5b80600301548310610c1c576040517f08c379a0000000000000000000000000000000000000000000000000000000008152600401610c1390611e8c565b60405180910390fd5b60008160060160008581526020019081526020016000209050816005015481600101541115610ca95780600001826004019081610c599190611ed7565b5080600101548260050181905550847f11ce86260d380c5501024cd1ef2c286430b4651a3fb144123bd4a55251770997836004018460050154604051610ca0929190612043565b60405180910390a25b5050505050565b60008054906101000a900473ffffffffffffffffffffffffffffffffffffffff1681565b60015481565b60008054906101000a900473ffffffffffffffffffffffffffffffffffffffff1673ffffffffffffffffffffffffffffffffffffffff163373ffffffffffffffffffffffffffffffffffffffff1614610d68576040517f08c379a0000000000000000000000000000000000000000000000000000000008152600401610d5f906118fd565b60405180910390fd5b806001548110610dad576040517f08c379a0000000000000000000000000000000000000000000000000000000008152600401610da490611969565b60405180910390fd5b60006002600084815260200190815260200160002090508060020160009054906101000a900460ff16610e15576040517f08c379a0000000000000000000000000000000000000000000000000000000008152600401610e0c906120bf565b60405180910390fd5b60008160020160006101000a81548160ff0219169083151502179055506000606060005b8360030154811015610f315782846006016000838152602001908152602001600020600101541115610f24578360060160008281526020019081526020016000206001015492508360060160008281526020019081526020016000206000018054610ea390611a24565b80601f0160208091040260200160405190810160405280929190818152602001828054610ecf90611a24565b8015610f1c5780601f10610ef157610100808354040283529160200191610f1c565b820191906000526020600020905b815481529060010190602001808311610eff57829003601f168201915b505050505091505b8080600101915050610e39565b5080836004019081610f439190611c01565b50818360050181905550847f768f23cc1edb48955299fa848c47d3fdebf8c6c78b4136045ba193ebad23fb8d846004018560050154604051610f86929190612043565b60405180910390a25050505050565b60606000806000846001548110610fe1576040517f08c379a0000000000000000000000000000000000000000000000000000000008152600401610fd890611969565b60405180910390fd5b60006002600088815260200190815260200160002090508060000181600101548260020160009054906101000a900460ff16836003015483805461102490611a24565b80601f016020809104026020016040519081016040528092919081815260200182805461105090611a24565b801561109d5780601f106110725761010080835404028352916020019161109d565b820191906000526020600020905b81548152906001019060200180831161108057829003601f168201915b50505050509350955095509550955050509193509193565b8160015481106110fa576040517f08c379a00000000000000000000000000000000000000000000000000000000081526004016110f190611969565b60405180910390fd5b826002600082815260200190815260200160002060010154421115611154576040517f08c379a000000000000000000000000000000000000000000000000000000000815260040161114b9061212b565b60405180910390fd5b600060026000868152602001908152602001600020905060008160070160003373ffffffffffffffffffffffffffffffffffffffff1673ffffffffffffffffffffffffffffffffffffffff16815260200190815260200160002090508160020160009054906101000a900460ff16611201576040517f08c379a00000000000000000000000000000000000000000000000000000000081526004016111f890612197565b60405180910390fd5b8060000160009054906101000a900460ff1615611253576040517f08c379a000000000000000000000000000000000000000000000000000000000815260040161124a90612203565b60405180910390fd5b81600301548510611299576040517f08c379a000000000000000000000000000000000000000000000000000000000815260040161129090611e8c565b60405180910390fd5b60018160000160006101000a81548160ff02191690831515021790555084816001018190555081600601600086815260200190815260200160002060010160008154809291906112e890611d02565b91905055503373ffffffffffffffffffffffffffffffffffffffff16867f2acce567deca3aabf56327adbb4524bd5318936eaefa69e3a5208ffda0cfec09876040516113349190611824565b60405180910390a3505050505050565b6000604051905090565b600080fd5b600080fd5b6000819050919050565b61136b81611358565b811461137657600080fd5b50565b60008135905061138881611362565b92915050565b600080fd5b600080fd5b6000601f19601f8301169050919050565b7f4e487b7100000000000000000000000000000000000000000000000000000000600052604160045260246000fd5b6113e182611398565b810181811067ffffffffffffffff82111715611400576113ff6113a9565b5b80604052505050565b6000611413611344565b905061141f82826113d8565b919050565b600067ffffffffffffffff82111561143f5761143e6113a9565b5b61144882611398565b9050602081019050919050565b82818337600083830152505050565b600061147761147284611424565b611409565b90508281526020810184848401111561149357611492611393565b5b61149e848285611455565b509392505050565b600082601f8301126114bb576114ba61138e565b5b81356114cb848260208601611464565b91505092915050565b600080604083850312156114eb576114ea61134e565b5b60006114f985828601611379565b925050602083013567ffffffffffffffff81111561151a57611519611353565b5b611526858286016114a6565b9150509250929050565b6000602082840312156115465761154561134e565b5b600061155484828501611379565b91505092915050565b600081519050919050565b600082825260208201905092915050565b60005b8381101561159757808201518184015260208101905061157c565b60008484015250505050565b60006115ae8261155d565b6115b88185611568565b93506115c8818560208601611579565b6115d181611398565b840191505092915050565b6115e581611358565b82525050565b6000604082019050818103600083015261160581856115a3565b905061161460208301846115dc565b9392505050565b600080604083850312156116325761163161134e565b5b600083013567ffffffffffffffff8111156116505761164f611353565b5b61165c858286016114a6565b925050602061166d85828601611379565b9150509250929050565b600073ffffffffffffffffffffffffffffffffffffffff82169050919050565b60006116a282611677565b9050919050565b6116b281611697565b81146116bd57600080fd5b50565b6000813590506116cf816116a9565b92915050565b600080604083850312156116ec576116eb61134e565b5b60006116fa85828601611379565b925050602061170b858286016116c0565b9150509250929050565b60008115159050919050565b61172a81611715565b82525050565b60006020820190506117456000830184611721565b92915050565b600080604083850312156117625761176161134e565b5b600061177085828601611379565b925050602061178185828601611379565b9150509250929050565b600060c08201905081810360008301526117a581896115a3565b90506117b460208301886115dc565b6117c16040830187611721565b6117ce60608301866115dc565b81810360808301526117e081856115a3565b90506117ef60a08301846115dc565b979650505050505050565b61180381611697565b82525050565b600060208201905061181e60008301846117fa565b92915050565b600060208201905061183960008301846115dc565b92915050565b6000608082019050818103600083015261185981876115a3565b905061186860208301866115dc565b6118756040830185611721565b61188260608301846115dc565b95945050505050565b7f4f6e6c79206f776e65722063616e2063616c6c20746869732066756e6374696f60008201527f6e00000000000000000000000000000000000000000000000000000000000000602082015250565b60006118e7602183611568565b91506118f28261188b565b604082019050919050565b60006020820190508181036000830152611916816118da565b9050919050565b7f456c656374696f6e20646f6573206e6f74206578697374000000000000000000600082015250565b6000611953601783611568565b915061195e8261191d565b602082019050919050565b6000602082019050818103600083015261198281611946565b9050919050565b7f43616e64696461746520616c7265616479206578697374730000000000000000600082015250565b60006119bf601883611568565b91506119ca82611989565b602082019050919050565b600060208201905081810360008301526119ee816119b2565b9050919050565b7f4e487b7100000000000000000000000000000000000000000000000000000000600052602260045260246000fd5b60006002820490506001821680611a3c57607f821691505b602082108103611a4f57611a4e6119f5565b5b50919050565b60008190508160005260206000209050919050565b60006020601f8301049050919050565b600082821b905092915050565b600060088302611ab77fffffffffffffffffffffffffffffffffffffffffffffffffffffffffffffffff82611a7a565b611ac18683611a7a565b95508019841693508086168417925050509392505050565b6000819050919050565b6000611afe611af9611af484611358565b611ad9565b611358565b9050919050565b6000819050919050565b611b1883611ae3565b611b2c611b2482611b05565b848454611a87565b825550505050565b600090565b611b41611b34565b611b4c818484611b0f565b505050565b5b81811015611b7057611b65600082611b39565b600181019050611b52565b5050565b601f821115611bb557611b8681611a55565b611b8f84611a6a565b81016020851015611b9e578190505b611bb2611baa85611a6a565b830182611b51565b50505b505050565b600082821c905092915050565b6000611bd860001984600802611bba565b1980831691505092915050565b6000611bf18383611bc7565b9150826002028217905092915050565b611c0a8261155d565b67ffffffffffffffff811115611c2357611c226113a9565b5b611c2d8254611a24565b611c38828285611b74565b600060209050601f831160018114611c6b5760008415611c59578287015190505b611c638582611be5565b865550611ccb565b601f198416611c7986611a55565b60005b82811015611ca157848901518255600182019150602085019450602081019050611c7c565b86831015611cbe5784890151611cba601f891682611bc7565b8355505b6001600288020188555050505b505050505050565b7f4e487b7100000000000000000000000000000000000000000000000000000000600052601160045260246000fd5b6000611d0d82611358565b91507fffffffffffffffffffffffffffffffffffffffffffffffffffffffffffffffff8203611d3f57611d3e611cd3565b5b600182019050919050565b60006020820190508181036000830152611d6481846115a3565b905092915050565b7f456c656374696f6e206973207374696c6c206163746976650000000000000000600082015250565b6000611da2601883611568565b9150611dad82611d6c565b602082019050919050565b60006020820190508181036000830152611dd181611d95565b9050919050565b6000611de382611358565b9150611dee83611358565b9250828201905080821115611e0657611e05611cd3565b5b92915050565b6000611e1782611358565b9150611e2283611358565b9250828203905081811115611e3a57611e39611cd3565b5b92915050565b7f496e76616c69642063616e646964617465000000000000000000000000000000600082015250565b6000611e76601183611568565b9150611e8182611e40565b602082019050919050565b60006020820190508181036000830152611ea581611e69565b9050919050565b600081549050611ebb81611a24565b9050919050565b60008190508160005260206000209050919050565b818103611ee5575050611fbd565b611eee82611eac565b67ffffffffffffffff811115611f0757611f066113a9565b5b611f118254611a24565b611f1c828285611b74565b6000601f831160018114611f4b5760008415611f39578287015490505b611f438582611be5565b865550611fb6565b601f198416611f5987611ec2565b9650611f6486611a55565b60005b82811015611f8c57848901548255600182019150600185019450602081019050611f67565b86831015611fa95784890154611fa5601f891682611bc7565b8355505b6001600288020188555050505b5050505050505b565b60008154611fcc81611a24565b611fd68186611568565b94506001821660008114611ff157600181146120075761203a565b60ff19831686528115156020028601935061203a565b61201085611a55565b60005b8381101561203257815481890152600182019150602081019050612013565b808801955050505b50505092915050565b6000604082019050818103600083015261205d8185611fbf565b905061206c60208301846115dc565b9392505050565b7f456c656374696f6e20697320616c726561647920696e61637469766500000000600082015250565b60006120a9601c83611568565b91506120b482612073565b602082019050919050565b600060208201905081810360008301526120d88161209c565b9050919050565b7f566f74696e6720706572696f642068617320656e646564000000000000000000600082015250565b6000612115601783611568565b9150612120826120df565b602082019050919050565b6000602082019050818103600083015261214481612108565b9050919050565b7f456c656374696f6e206973206e6f742061637469766500000000000000000000600082015250565b6000612181601683611568565b915061218c8261214b565b602082019050919050565b600060208201905081810360008301526121b081612174565b9050919050565b7f416c726561647920766f74656400000000000000000000000000000000000000600082015250565b60006121ed600d83611568565b91506121f8826121b7565b602082019050919050565b6000602082019050818103600083015261221c816121e0565b905091905056fea264697066735822122045cd8ef6874a5149c846f0d3e07158502234b734b114a3c4c4fcb6ac7c94576764736f6c63430008180033",
  "linkReferences": {},
  "deployedLinkReferences": {}
}